:020000040800F2
:1000000048050020D90100089B160008FF150008CC
:10001000991600086F070008B11A000800000000D8
:10002000000000000000000000000000BF160008F3
:100030007107000800000000BD160008C116000886
:10004000F3010008F3010008F3010008F3010008C0
:10005000F3010008F3010008F3010008F3010008B0
:10006000F3010008F3010008F3010008F3010008A0
:10007000F3010008F3010008F3010008F301000890
:10008000F3010008F3010008F3010008F301000880
:10009000F3010008F3010008F3010008F301000870
:1000A000F3010008F3010008F3010008F301000860
:1000B000F3010008F3010008F3010008F301000850
:1000C000F3010008F3010008F3010008F301000840
:1000D000F3010008F3010008F3010008F301000830
:1000E000F3010008F3010008F3010008F301000820
:1000F000F3010008F3010008F3010008F301000810
:10010000F3010008F3010008F3010008F3010008FF
:10011000F3010008F3010008F3010008F3010008EF
:10012000F3010008F3010008F3010008F3010008DF
:10013000F30100080000000000000000F3010008C7
:10014000F3010008F3010008F3010008F3010008BF
:10015000F3010008F3010008F3010008F3010008AF
:10016000F3010008F3010008F3010008F30100089F
:10017000F3010008F3010008F3010008000000008B
:1001800000000000F3010008000000000000000073
:10019000F30100080000000000000000F301000867
:1001A000000000000000000000000000F301000853
:1001B000F3010008F3010008F3010008F30100084F
:1001C000F3010008DFF80CD000F050FA00480047B7
:1001D0006925000848050020064880470648004772
:1001E000FEE7FEE7FEE7FEE7FEE7FEE7FEE7FEE7E7
:1001F000FEE7FEE74D170008C50100082DE9F05F96
:100200000546002092469B46884606468146402485
:100210001BE0284641464746224600F05EF853461A
:100220005A46C01A914110D311461846224600F092
:1002300045F82D1A67EB01084F46224601200021A0
:1002400000F03CF817EB00094E41201EA4F1010418
:10025000DFDC484631462A464346BDE8F09FD2B22D
:1002600001E000F8012B491EFBD270470022F6E79F
:1002700010B513460A4604461946FFF7F0FF20461C
:1002800010BD421C10F8011B0029FBD1801A7047D9
:1002900030B50B46014600202022012409E021FA56
:1002A00002F59D4205D303FA02F5491B04FA02F553
:1002B0002844151EA2F10102F1DC30BD202A04DB26
:1002C000203A00FA02F1002070479140C2F1200369
:1002D00020FA03F3194390407047202A04DB203AA8
:1002E00021FA02F00021704721FA02F3D040C2F156
:1002F000200291400843194670472DE9FE4F804681
:1003000081EA0300C00F0C46009021F0004123F069
:100310000045B8EB0200A94105D24046214690466F
:100320001C460B46024623F00040104347D0270DE1
:10033000C7F30A00C3F30A510290401A0190402803
:100340006BDAC3F3130040F4801B0098924620B18F
:100350000023D2EB030A63EB0B0B01985946C0F163
:1003600040025046FFF7AAFF06460D465046594642
:10037000019A00F08DF910EB08006141002487EA32
:10038000115284EAE7731A4340D0009A62B3019A8B
:10039000012A4FEA075215DC001B61EB02014FF006
:1003A000004202EA0752CDE90042001C41F58011EB
:1003B00032462B4600F08DF903B0BDE8F08F404681
:1003C0002146F9E7001B61EB0201001C41F5801397
:1003D00000185B412018A2F5001747EB030140EA23
:1003E000D570B6196D4111E06D084FEA360645EA41
:1003F000C0754FEA0752001B61EB0201001C41F57A
:10040000801149084FEA30000019514132462B460D
:1004100003B0BDE8F04F00F04DB900980122400054
:100420000023D0EB020263EBE073009821464FEA11
:10043000E074B8EB000061EB0401E9E783F00043EE
:100440005BE781F0004158E72DE9FE4F81EA0304A4
:1004500004F0004421F0004100944FF0000B23F021
:10046000004350EA01045ED052EA03045BD0C3F3B8
:100470000A54C1F30A552C44A4F2F3340194A0FBAE
:100480000254C1F3130141F48011C3F3130343F485
:10049000801301FB024400FB034E840A970A44EADE
:1004A000815447EA8357A4FB076802958D0A05FB30
:1004B00007854FEA932C04FB0C542705029D4FEA55
:1004C000065847EA1637B5EB08056EEB070C870EA2
:1004D000920E47EA811742EA8312A7FB0201B6EBAC
:1004E0000B0164EB00042B0D43EA0C335E1844EB64
:1004F0001C50DA465146E7FB0201C5F313044FEAEC
:100500000B3343EA14534FEA0432019C43EA0603D7
:10051000A4F10C040294009CCDE900B400F0D9F8D9
:1005200003B0BDE8F08F00200146F9E72DE9F04D5A
:1005300081EA030404F0004B21F0004514464FF01B
:10054000000A23F0004150EA050220D054EA0102DB
:100550001DD0C5F30A570246C5F31303C1F31300B8
:10056000C1F30A5640F4801543F48013A7EB060844
:10057000101BD64608F2FD3873EB050002D308F1D4
:10058000010801E092185B41B8F1000F03DA002086
:100590000146BDE8F08D00204FF4801106468446E8
:1005A0000EE0171B73EB050705D3121B63EB050366
:1005B00006434CEA010C49084FEA300092185B41AF
:1005C00050EA0107EDD152EA030012D082EA04009A
:1005D00083EA0501084305D0101BAB4106D2012276
:1005E000002306E000224FF0004302E06FF001021A
:1005F00053101AEB06004CEB085110EB0A0041EBCC
:100600000B01BDE8F04D00F055B8C1F30A52C1F33B
:10061000130140F2FF3341F480119A4202DA0020C4
:100620000146704740F233439A42A2F2334202DC61
:100630005242FFF752BEFFF741BE000030B5041E24
:1006400071F1000404DB4FF00044404264EB01010F
:10065000141E73F1000405DB1C464FF000435242A8
:1006600063EB0403994208BF904230BD064C074D2E
:1006700006E0E06840F0010394E807009847103472
:10068000AC42F6D3FFF7A2FDE427000804280008D7
:10069000202A06DBCB17203A41FA02F043EAE07346
:1006A00006E041FA02F3D040C2F120029140084333
:1006B0001946704710B5141E73F1000408DA401C87
:1006C00041F1000192185B411A4301D120F0010071
:1006D00010BD2DE9F04D92469B4611B1B1FA81F261
:1006E00002E0B0FA80F220329046FFF7E7FD0446C0
:1006F0000F4640EA0A0041EA0B0153465A460843B6
:1007000013D0114653EA010019D0C8F140025046F7
:10071000FFF7E3FD05460E46504659464246FFF7B1
:10072000CDFD084305D0012004E020463946BDE850
:10073000F08D0020054346EAE0762C4337430A98C3
:100740006305E40AA0EB08000022FD0A44EA4754CE
:100750000A3002D500200146E9E701051019694178
:10076000DDE9084500196941BDE8F04DA2E7FEE763
:1007700070470000002229B101291AD002291BD09C
:100780004FF440720E490B6823F440730B600B6802
:1007900013430B600A6822F0F8020A600A68022319
:1007A00003EBC00002430A60086840F48030086030
:1007B00070474FF48072E5E74FF40072E2E7000003
:1007C000103C02401348016889050FD5016821F4E7
:1007D00000710160016841F400610160016821F469
:1007E00000610160016841F4007101600168490520
:1007F0000FD5016821F480610160016841F48051E6
:100800000160016821F480510160016841F4806158
:1008100001607047003C024008490A6822F44072B7
:100820000A600A6842F004020A600A684FF48033E2
:1008300043EA002002430A6070470000103C024077
:10084000064A136823F44073136013681360136837
:1008500043F001031360017070470000103C024038
:10086000084910B50C6824F440740C600C6844F41A
:1008700040740C600C6844F001040C60026043603A
:1008800010BD0000103C0240074A136823F4407377
:100890001360136843F480731360136843F001031B
:1008A0001360018070470000103C0240074A136843
:1008B00023F440731360136843F4007313601368E8
:1008C00043F001031360016070470000103C0240D8
:1008D0001C490868C2061C4805D5C26942F01002CE
:1008E000C26110220A600A68920605D5C26942F008
:1008F0000802C26120220A600A68520605D5C26950
:1009000042F00402C26140220A600A68120605D55C
:10091000C26942F00202C26180220A600A68D205FE
:1009200006D5C26942F00102C2614FF480720A60CA
:100930000A68920705D5C26942F02002C26102200E
:10094000086070470C3C02402801002070B5114936
:1009500004460020C86100F0E7F906460E4D09E0A4
:10096000601C07D024B100F0DFF9801BA04201D940
:10097000032070BD2868C003F2D42868C00701D0E6
:1009800001202860286810F4F970F2D0FFF7A0FF6A
:10099000012070BD280100200C3C024070B5047994
:1009A0000023012C04D0012404710225457106E0C6
:1009B000022070BD066851F8235035605B1C9342DD
:1009C000F8D34471002101710068006870BD10B552
:1009D000040002D0607910B106E0012010BD0020B3
:1009E0002071204600F006F802206071012060713D
:1009F000002010BD08B500680649884208D10648A5
:100A0000016841F480510160006800F4805000905A
:100A100008BD000000300240303802402DE9F047A8
:100A2000044622480F46017E01290AD00121804652
:100A300001764CF250394846FFF788FF020003D098
:100A40002FE00220BDE8F0874FF0FF3038602068CB
:100A5000174D012801D0A6681CE0207C6168FFF7D3
:100A6000DBFE4846FFF772FF0246286820F00400CC
:100A7000286014E0217C3046FFF77CFE4846FFF7F3
:100A800065FF0200286820F0FA00286001D03E606F
:100A900005E0761CD4E902100844B042EAD8FFF71A
:100AA00091FE002188F818101046CBE7280100209D
:100AB000103C02400348016841F000410160002001
:100AC00070470000103C02402DE9F0471B4E0546E0
:100AD0001446307E1F468946012808D00120307612
:100AE0004CF250384046FFF731FF18B114E00220B5
:100AF000BDE8F0879DB1012D16D0022D19D02246F8
:100B00003B464846FFF7ACFE4046FFF71FFF0C4947
:100B10000A6822F001020A6000213176E8E7E1B2BA
:100B20004846FFF78DFEEFE7A1B24846FFF7ACFE5F
:100B3000EAE721464846FFF7B9FEE5E7280100202D
:100B4000103C0240074900200A68002A09DA054AD9
:100B5000054B0C3A1360054B13600968002900DA55
:100B600001207047103C024023016745AB89EFCD5F
:100B70002DE9F84FDFF874B100224FF001084FF073
:100B8000030A4FF00F090BF1040E00BF0B6808FABF
:100B900002F42340A3426ED14D68022D01D0122DE4
:100BA0000ED1D50800EB850CDCF820505607F70E67
:100BB00009FA07F6B5430E69BE402E43CCF8206013
:100BC000066855000F790AFA05FC07F0030726EAC4
:100BD0000C06AF40374307604E68012E05D0022E49
:100BE00003D0112E01D0122E0ED18668CF6826EACE
:100BF0000C06AF40374387604668A6430C79C4F3C0
:100C00000014944034434460C4688E6824EA0C04A1
:100C1000AE402643C6604C68E40060D5344C25687D
:100C200045F480452560246822F0030504F48044DF
:100C30000094304C2E19D6F8084895072F0F09FA62
:100C400007F5AC432C4DA84201D100251FE02B4DE8
:100C5000A84201D101251AE0294DA84201D102255F
:100C600015E0284DA84201D1032510E0264DA842E9
:100C700002D104250BE032E0244DA84201D1052524
:100C800005E0234DA84201D1062500E00725BD401F
:100C90002543C6F80858DBF800405D464E689C4383
:100CA000F60300D51C432C60DEF8004075464E6804
:100CB0009C43B60300D51C432C600C4D08352C68B2
:100CC0004E689C43F60200D51C432C60074D0C3542
:100CD0002C684E689C43B60200D51C432C60521C05
:100CE000102AFFF453AFBDE8F88F0000003C01402C
:100CF000443802400030014000000240000402403D
:100D000000080240000C02400010024000140240A3
:100D1000001802400069084000D0012070470AB165
:100D2000816170470904FBE7014880687047000053
:100D300010000020024881680278114481607047E9
:100D4000100000200B4810B5016841F400710160EB
:100D5000016841F480610160016841F480710160C3
:100D6000032000F063F8002000F006F800F024F8FB
:100D7000002010BD003C024070B50D4D04464FF4FC
:100D80007A712878B1FBF0F00A490968B1FBF0F0FC
:100D900000F002FB48B9102C07D200222146501E59
:100DA00000F024F800206C6070BD012070BD0000D0
:100DB000100000201C0000200B4882B0016841F4A4
:100DC00080410160006800F4804000900648001FE8
:100DD000016841F080510160006800F0805000908F
:100DE000072002B000F022B844380240F0B40E4BA5
:100DF0001B680C46C3F30223C3F10705042D00D979
:100E00000425191D072901D2002300E0DB1E01265D
:100E100006FA05F1491E214099409E40761E164073
:100E20003143F0BC00F03ABC0CED00E0064900F0A4
:100E3000070208684FF6FF03184040EA0220034A01
:100E400010430860704700000CED00E00000FA0558
:100E50002DE9F0470E46050065D0DFF81481D8F87B
:100E60000000F7B200F00F00B04207D288F800701F
:100E7000D8F8000000F00F00B04254D128683D4C73
:100E8000810712D5400703D5206840F4E050206068
:100E90002878000703D5206840F46040206020686F
:100EA000A96820F0F000084320602878C0072DD002
:100EB000304968680839012812D0022813D0032865
:100EC00011D00968890700292DDA216821F0030172
:100ED00001432160FFF728FF814641F2883A0EE086
:100EE00009688903EFE709688901ECE7FFF71CFF50
:100EF000A0EB0901514502D90320BDE8F087206825
:100F0000696800F00C00B0EB810FEFD1D8F8001049
:100F1000404601F00F01B14207D90770006800F0A8
:100F20000F00B04201D00120E7E72878400705D53F
:100F30002068E96820F4E050084320602878000722
:100F400006D52068296920F4604040EAC10020608D
:100F500000F036F82168084AC1F30311515CC8401B
:100F6000064908600020FFF707FF0020C5E70000E2
:100F7000003C024008380240CC2700081C0000203A
:100F80000448054900680968044AC1F38221515C9C
:100F9000C84070471C00002008380240DC270008C9
:100FA0000448054900680968044AC1F34231515CAC
:100FB000C84070471C00002008380240DC270008A9
:100FC000224810B5006810F00C02214815D04110DD
:100FD000042A11D01D4C241F082A0FD00C2A0CD132
:100FE0002268236802F03F025B0221D52068C0F32B
:100FF0008810A0FB010120E0084610BD226823688C
:1010000002F03F025B0205D52068C0F38810A0FB08
:10101000010104E02168C1F38811A1FB0001002354
:10102000FFF7ECF82168C1F30141491C49000AE0CF
:101030002168C1F38811A1FB00010023FFF7DEF84E
:101040002168C1F30271B0FBF1F010BD0838024015
:101050000024F4002DE9F84F0546DFF828B30078A6
:10106000ABF10407C007A7F1040451D0DBF800106E
:101070005846C1F3810101290FD00168C1F38101F4
:10108000022902D13968490207D40068C0F38100FF
:10109000032809D13868400206D52068800337D577
:1010A0006868002872D033E06868B0F5803F10D0DF
:1010B000B0F5A02F206810D020F480302060206888
:1010C00020F4802020606868A8B1FFF72DFE064656
:1010D0000DE0206840F48030F4E740F48020206088
:1010E000F7E700BFFFF720FE801B642878D8206850
:1010F0008003F7D50CE0FFF717FE064605E000BFBA
:10110000FFF712FE801B6428F0D820688003F7D414
:101110002878DFF8749280074FF0000A46D5DBF894
:101120000010584611F00C0F0FD00168C1F3810177
:10113000022902D13968490207D50068C0F381004D
:10114000032809D13868400206D42068800715D5E5
:10115000E86801281AD111E0E868C0B10120C9F897
:101160000000FFF7E1FD064605E000BFFFF7DCFDEC
:10117000801B0228BAD820688007F7D52068296923
:1011800020F0F80040EAC10020600FE0F7E0C9F865
:1011900000A0FFF7C9FD064605E000BFFFF7C4FD4C
:1011A000801B02281CD820688007F7D42878000705
:1011B00027D5DFF8D0817548696908F16C0881B1DD
:1011C00001210160FFF7B0FD064604E0FFF7ACFD2A
:1011D000801B022804D8D8F800008007F6D510E05C
:1011E00089E0C0F800A0FFF79FFD064605E000BFBC
:1011F000FFF79AFD801B02287DD8D8F800008007F1
:10120000F6D42878400769D55E484FF0000838309A
:101210000068C0000BD45B483830016841F0805151
:10122000016000684FF0010800F080500090584EB7
:101230003068C00511D4306840F480703060FFF72A
:1012400073FD009006E000BFFFF76EFD0099401AA5
:10125000022850D83068C005F6D54A4EA8686836CE
:1012600001280FD00528306810D020F00100306030
:10127000306820F004003060A868B8B1FFF754FD72
:1012800000900FE0306840F00100F4E740F0040007
:101290003060F7E7FFF748FD0099411A41F28830C6
:1012A000814264D830688007F4D50EE0FFF73CFD3A
:1012B000009007E0FFF738FD0099411A41F28830AD
:1012C000814254D830688007F4D4B8F1000F05D0BB
:1012D0002C483830016821F080510160A869A8B31A
:1012E000DBF80010C1F38101022948D00228C9F8B7
:1012F00060A005D000E03AE0FFF716FD054639E0B2
:10130000FFF712FD064604E0FFF70EFD801B0228E2
:101310002DD820688001F7D4F5E907010843E96872
:101320001C4A490802EB0141AA6841EA82110843BC
:10133000297C40EA0160297D40EA01703860012083
:10134000C9F86000FFF7F0FC054606E015E000BFB5
:10135000FFF7EAFC401B022809D820688001F7D576
:101360000BE000BFFFF7E0FC401B022802D903207E
:10137000BDE8F88F20688001F4D40020F8E7012050
:10138000F6E700000838024000004742800E47425E
:10139000007000400000FFFF10B5401EB0F1807FDC
:1013A00001D3012010BD4FF0E02460610F216017D0
:1013B00000F074F90020A06107202061002010BD1A
:1013C00070B5040004D094F83900002510B106E08F
:1013D000012070BD84F83850204600F023F8242006
:1013E00084F839002068C16821F40051C1602046AA
:1013F00000F0D6F92068016921F49041016120686C
:10140000416921F02A0141612068C16841F400511D
:10141000C160E563202084F8390084F83A00002098
:1014200070BD000010B586B0044614216846FEF772
:101430001DFF13492068884220D11248016841F4F9
:1014400000310160006800F4003005900D4810384C
:10145000016841F0010101600068694600F0010087
:1014600005900C20009002200190012002900320A2
:101470000390072004900448FFF77AFB06B010BDE4
:101480000044004040380240000002402DE9F8438B
:10149000044690F83A00994616460D4620284FD14A
:1014A00095B18EB194F83800012849D0012084F814
:1014B00038000027E763222084F83A00FFF734FC65
:1014C000A6858046E68531E00120BDE8F883E08D01
:1014D000401EE085A0684346B0F5805F4FF00002F3
:1014E0004FF020012046CDF8009004D000F0AEFA75
:1014F00098B10320E9E700F0A9FA0028F9D12069A2
:1015000000282068406803D0C1B225F8011B0DE017
:10151000C0F3080125F8021B08E0206900282068B4
:10152000406801D000F07F0005F8010BE08D002835
:10153000CDD1202084F83A0084F838700020C4E728
:101540000220C2E72DE9F843044690F839001F460F
:1015500016460D46202850D1A5B19EB194F838000A
:1015600001284AD0012084F838004FF00008C4F860
:101570003C80212084F83900FFF7D6FBA684814601
:10158000E68426E00120BDE8F883E08C401EE0847C
:10159000A0684B46B0F5805F4FF000024FF080012D
:1015A0002046009703D000F051FAE8B90DE000F0B2
:1015B0004DFAC8B928882168C0F30800486020693E
:1015C00008B16D1C05E0AD1C03E0216815F8010BA6
:1015D0004860E08C0028D8D14B46002240212046AC
:1015E000009700F033FA08B10320CCE7202084F8FC
:1015F000390084F838800020C5E70220C3E7FEE701
:1016000030B587B014216846FEF730FE1E4800242E
:10161000016841F004010160016801F004010591D5
:10162000016841F080010160016801F080010591CD
:10163000016841F001010160016801F001010591BB
:10164000016841F0020101600068104D00F00200E5
:101650000590002220212846FFF761FB4FF400503F
:1016600000900B48CDE9010469460A48FFF780FA6B
:10167000202000900120CDE901046946284603940A
:10168000FFF776FA07B030BD303802400000024064
:101690000000211000080240FEE770470907090E0C
:1016A000002806DA00F00F0000F1E02080F8141D99
:1016B000704700F1E02080F80014704770477047D1
:1016C000FFF738BB30B593B034216846FEF7CEFD46
:1016D00014210DA8FEF7CAFD1A480025016841F043
:1016E00080510160006800F0805012901648016837
:1016F00021F4404141F4804101600068022400F47B
:101700004040129001200390102000940694049011
:10171000CDE907504FF4A87009900420CDE90A04E0
:1017200068460C94FFF796FC0DA90F2081E8310064
:10173000E002CDE9100502210DA8FFF789FB13B0E7
:1017400030BD000040380240007000401048016881
:1017500041F4700101600F48016841F0010101602E
:101760000C4A00210832116002680B4B1A400260DB
:10177000031D0A4A1A60026822F4802202600548AA
:101780000C3001600249580680390860704700003B
:1017900088ED00E000380240FFFFF6FE1030002424
:1017A0002DE9F04104460068016921F44052E168E6
:1017B000114301612168C86849F20C6290432369B2
:1017C000A268E5691A4363692B431A430243CA605E
:1017D0002168486920F44072A06910434861E169BA
:1017E0006425B1F5004F9748974A21684FF03208B9
:1017F0003FD0914201D081427CD1FFF7D1FB00EB79
:10180000C00101EB001061688900B0FBF1F6FFF741
:10181000C7FB00EBC00101EB001061688900B0FB61
:10182000F1F0B0FBF5F06FF01801484306EB8001D2
:1018300008EB0110B0FBF5F000F0F006FFF7B0FB8D
:1018400000EBC00101EB001061688900B0FBF1F012
:10185000B0FBF5F006EB0016FFF7A2FB00EBC001B2
:1018600001EB001061688900B0FBF1F7FFF798FB0E
:10187000D2E0914201D081423DD1FFF791FB00EBD4
:10188000C00101EB001061684900B0FBF1F0B0FB52
:10189000F5F00601FFF784FB00EBC00101EB00103F
:1018A00061684900B0FBF1F7FFF77AFB00EBC0017C
:1018B00001EB001061684900B0FBF1F0B0FBF5F0FE
:1018C0006FF01801484307EB800108EBC100B0FB43
:1018D000F5F000F0F80006EB4006FFF761FB00EBC7
:1018E000C00101EB001061684900B0FBF1F7FFF7A0
:1018F00057FB3CE055E0FFF743FB00EBC00101EB79
:10190000001061684900B0FBF1F0B0FBF5F0060192
:10191000FFF736FB00EBC00101EB001061684900E6
:10192000B0FBF1F7FFF72CFB00EBC00101EB00105F
:1019300061684900B0FBF1F0B0FBF5F06FF0180101
:10194000484307EB800108EBC100B0FBF5F000F065
:10195000F80006EB4006FFF713FB00EBC00101EBBC
:10196000001061684900B0FBF1F7FFF709FB00EBDD
:10197000C00101EB001061684900B0FBF1F0B0FB61
:10198000F5F06FF01801484307EB800108EBC10048
:10199000B0FBF5F000F00700216830448860BDE836
:1019A000F081FFF7EDFA00EBC00101EB0010616878
:1019B0008900B0FBF1F6FFF7E3FA00EBC00101EBA1
:1019C000001061688900B0FBF1F0B0FBF5F06FF03A
:1019D0001801484306EB800108EB0110B0FBF5F05D
:1019E00000F0F006FFF7CCFA00EBC00101EB0010AD
:1019F00061688900B0FBF1F0B0FBF5F006EB001672
:101A0000FFF7BEFA00EBC00101EB0010616889002E
:101A1000B0FBF1F7FFF7B4FA00EBC00101EB0010E7
:101A200061688900B0FBF1F0B0FBF5F06FF01801D0
:101A3000484307EB800108EB0110B0FBF5F000F024
:101A40000F00A9E700140140001001402DE9F0410A
:101A5000984617460E460446069D1DE0681C1BD09E
:101A60002DB1FFF761F9A0EB0800A84214D9206856
:101A7000C16821F4D071C1602068416921F0010181
:101A80004161202084F8390084F83A00002084F86D
:101A900038000320BDE8F0812068006836EA0000C5
:101AA00004D00020B842D9D00020F3E70120F9E7A4
:101AB000FEE7000037B514460846064B6A46214645
:101AC00000F0DCF804466946002000F06EFC204679
:101AD0003EBD0000AB23000802E008C8121F08C189
:101AE000002AFAD170477047002001E001C1121F9F
:101AF000002AFBD1704700002DE9FF5F82B0002172
:101B0000DDE90430020DDDF840B0034318D044F69F
:101B10001050A2F2FF3242431514119801281FD031
:101B2000A5EB0B00401C5FEA000A4FF000064E4F89
:101B3000DFF83891B046504615D5CAF1000413E0DD
:101B4000119801244AA3012801D16FEA0B010298E0
:101B5000119AC0E90031C0E9024206B0BDE8F09F29
:101B6000CBF10000DFE704460021404A491842EB70
:101B70000450CDE9001012E0E00707D032463B46A2
:101B800040464946FEF760FC8046894632463B4661
:101B900010461946FEF758FC06460F466410002C06
:101BA000EAD1DDE90401DDE90023BAF1000F06DA2C
:101BB000FEF74AFC42464B46FEF746FC05E0FEF7C0
:101BC000B5FC42464B46FEF7B1FC04460E460022E9
:101BD000284BFEF733FD03D84FF0FF30014607E0F6
:101BE0000022254B20463146FEF787FBFEF70DFD10
:101BF000102409E0002C0ADB0A220023FEF7FEFA7B
:101C0000039B30321A55641E50EA0102F2D1641C63
:101C1000039AC4F111031444119A012A03D001223A
:101C200008430DD10AE0084304D000204FF0110B07
:101C3000119072E7A3EB0B056D1E0DE05B4504DD13
:101C40004FF0000205F1010504E003DA4FF0000255
:101C5000A5F10105002AECD002981199C0E90231E2
:101C6000C0E9004579E70000000014400000F03FA3
:101C7000300000000000F0430000E03F2DE9FF4F7E
:101C800095B09B468946064600250FE2252877D168
:101C900000242746F84A0121059400E0044316F881
:101CA000013F203B01FA03F01042F7D130782A2897
:101CB00011D06FF02F033078A0F13002092A16D826
:101CC000059A44F0020402EB820203EB4202104444
:101CD000761C0590EFE759F8042B0592002A03DAE9
:101CE000504244F40054059044F00204761C3078CD
:101CF0002E2816D116F8010F44F004042A280DD01E
:101D00006FF02F023078A0F13003092B09D807EBD0
:101D1000870302EB4303C718761CF3E759F8047BEB
:101D2000761C30786C280FD006DC4C2817D0682839
:101D30000DD06A2814D104E0742810D07A280FD16D
:101D40000DE044F400140AE044F4801401E044F48B
:101D500040147278824202D104F58014761C761CFD
:101D6000307866280BD013DC582877D009DC00289F
:101D700075D04528F6D04628F4D047281AD19DE1E1
:101D800018E0632835D0642879D0652812D195E110
:101D9000702873D008DC6728F1D069286FD06E28CE
:101DA0000DD06F2806D1B5E073282CD0752875D0DA
:101DB000782874D05A46179990476D1C75E1C4F382
:101DC0000250022809D003280DD0D9F800100428A9
:101DD0000DD00D6009F1040967E1D9F80010EA1788
:101DE000C1E90052F6E7D9F800100D80F2E70D7056
:101DF000F0E719F8041B8DF8001000208DF80100A1
:101E0000EA46012003E059F804AB4FF0FF306107C8
:101E10004FF0000102D40DE008F101018846B942FB
:101E20000FDA8045F8DB1AF808100029F4D108E031
:101E300008F1010188468142FADB1AF808100029EE
:101E4000F6D105985B46A0EB080721463846179A5D
:101E500000F094FA284400EB080507E04DE029E182
:101E60000DE01AF8010B5A4617999047B8F101088E
:101E7000F7D25B4621463846179A13E142E00A2220
:101E80000092C4F302524FF0000A022A08D059F817
:101E900004CB032A4FEAEC710AD00DE029E02AE0D6
:101EA00009F1070121F00702F2E802C1914609E0B9
:101EB0000FFA8CFC4FEAEC71042A03D14FFA8CFC28
:101EC0004FEAEC71002907DA0A460021DCF1000C28
:101ED00061EB02012D2202E0220504D52B228DF8B0
:101EE0000420012203E0E20701D02022F7E7904618
:101EF00059E00A2102E010220DE010214FF0000A03
:101F000000910BE010224FF0000A44F0040408276F
:101F1000009203E008224FF0000A0092C4F302523C
:101F2000022A05D059F804CB0021032A08D009E081
:101F300009F1070121F00702F2E802C1914605E02C
:101F40001FFA8CFC042A01D10CF0FF0C4FF00008A2
:101F5000220728D5702806D0009B83F0100353EA8F
:101F60000A0305D00EE040228DF80420012208E08B
:101F70005CEA010206D030228DF804208DF80500BD
:101F800002229046009B83F0080353EA0A030AD119
:101F90005CEA010201D1620705D530228DF80420E8
:101FA0004FF001087F1E582804D034A003900EA8DB
:101FB00002900DE036A0F9E753466046009AFEF71E
:101FC0001DF984460398825C0298401E02900270BC
:101FD0005CEA0100F0D1029806A9081A00F1200A73
:101FE000600702D524F4803400E00127574502DD64
:101FF000A7EB0A0000E0002000EB0A010090059822
:102000004144401A0590E00306D45B462146179AE6
:10201000059800F0B3F90544002706E001A85A46E8
:10202000C05D179990476D1C7F1C4745F6DBE003A8
:102030000CD55B462146179A059800F09FF9054498
:1020400004E030205A46179990476D1C0099481EAD
:1020500000900029F5DC08E0029802995A460078C1
:10206000491C0291179990476D1CBAF10001AAF121
:10207000010AF1DC65E1000009280100303132334A
:1020800034353637383961626364656600000000B4
:10209000303132333435363738394142434445469E
:1020A0000000000000F058F90544761C3078002844
:1020B0007FF4ECAD19B02846BDE8F08F620700D47C
:1020C000062709F1070222F0070CFCE80223E1468B
:1020D00003F000485FEA080C02D00FF2702C0DE00C
:1020E0005FEA045C02D50FF2682C07E05FEAC47C6B
:1020F00002D00FF2602C01E0AFF2700C4FF0FF380D
:1021000023F00043CDF850C065280CD006DC4528EC
:1021100009D046281DD047283DD13DE0662818D07B
:1021200067287ED138E00021112F01DB112000E06B
:10213000781CCDE9000106A90EA8FFF7DDFCDDE95A
:102140000F010E9A03910021009207F1010A0491F8
:102150004DE04FF000400097CDE9011006A90EA810
:10216000FFF7CAFCDDE90F0203920E9B11990022D2
:10217000DDF80CA00093049211B9791C00EB010A60
:10218000B7EB0A0004D4C0F1FF3007F1010A049054
:10219000AAEB0700019044E0012F00DA012700219B
:1021A000112F01DD112000E03846CDE9000106A91C
:1021B0000EA8FFF7A1FCDDE90F010E9A03910021A3
:1021C00004910092BA4621070CD40399514500DAD4
:1021D0008A46BAF1010F05DD009AAAF10101515CAE
:1021E000302908D0B84202DA10F1040F06DA0121D2
:1021F000CDE9011015E0AAF10101E9E7002805DCAD
:10220000049901440491AAEB000102E0411C5145EC
:1022100000DD8A460499401A401C01904FF00040AE
:102220000290200704D40198504501DBCDF80480CA
:1022300000208DF84F0002980DF14F07B0F1004FCC
:1022400025D02B200E9002984FF0020800280CDABF
:10225000404202902D200E9007E00A210298FEF7DE
:1022600017F83031029007F8011DB8F10001A8F10C
:102270000108F2DC02980028EFD1791E0E98087050
:10228000307800F0200040F0450007F8020D12A859
:10229000C01B00F107081498007800B1012000EB82
:1022A0000A01019801EBE07105984144401A401E73
:1022B0000590E00306D45B462146179A059800F086
:1022C0005DF805441498007818B15A46179990475C
:1022D0006D1CE00324D55B462146179A059800F053
:1022E0004DF805441CE00498002807DBDDE90301F4
:1022F000884203DD0098405C179901E0179930206F
:102300005A469047049805F10105401C0490019835
:10231000401E019004D12E205A46179990476D1CFB
:10232000BAF10001AAF1010ADDDC05E017F8010BA2
:102330005A46179990476D1CB8F10001A8F10108A1
:10234000F4DC5B462146179A0598ABE62D000000A9
:102350002B000000200000002DE9F041044600257C
:102360001E461746880404D405E039462020B047AD
:102370006D1C641EF9D52846BDE8F0812DE9F041B9
:10238000044600251E469046C80301D5302700E0CC
:102390002027880404D505E041463846B0476D1C27
:1023A000641EF9D52846BDE8F0810A68531C0B600D
:1023B0001070704710B50446FEF7B6FC04EB00043D
:1023C000FEF7B2FCA042FBD910BD10B5012486B0C7
:1023D000082902D9042006B010BD0123072803D91B
:1023E000FF2817D1009309E0C0F10802D2B2914250
:1023F00000D9114600220092CDE902010193FEF7B7
:10240000A1FB0220049005A96846FEF707FB0446DD
:10241000FEF750FB2046DEE738B5044600208DF875
:1024200000002078401CC1B26018091F50F8042C2D
:10243000204600F0ABF910B100F09AF938BD607891
:10244000012100F085F90C4D012220212846FEF7DC
:1024500066FCE178A078FFF7B8FF8DF80000002255
:1024600020212846FEF75BFC4FF0FF33012269462E
:102470000248FFF767F838BD000002402000002046
:1024800038B504460078401CC1B26018091F50F8E6
:10249000042C204600F07AF918B1BDE8384000F06D
:1024A00067B9094800680221C0F30B00ADF80000CD
:1024B000607800F04DF94FF0FF330222694603487F
:1024C000FFF740F838BD0000002004E020000020A5
:1024D00010B504460078401CC1B26018091F50F8BE
:1024E000042C204600F052F918B1BDE8104000F06D
:1024F0003FB96078052100F02BF9BDE810404FF09E
:10250000FF33052201490248FFF71CB800000020F4
:102510002000002038B504460078401CC1B2601885
:10252000091F50F8042C204600F030F918B1BDE81E
:10253000384000F01DB96078012100F009F9202031
:102540008DF800004FF0FF33012269460148FEF785
:10255000F9FF38BD200000200249086880F3088890
:102560004868004700800008FEF7ECFBFFF7AAF878
:10257000FFF746F8194818490C2201604FF4E13181
:10258000416000218160C160C0E904128161C161C4
:10259000FEF716FF1349124808600846FEF717FABF
:1025A000114D4FF400544FF47A7621462846FEF739
:1025B000B1FB40B1FFF7D0FF0CA000F07DF8304632
:1025C000FFF7F8FEF1E70EA000F076F83046FFF7CF
:1025D000F1FE00F089F800000044004020000020D7
:1025E0000030024008000020000802404275747468
:1025F0006F6E204E6F7420507265737365640A00AD
:10260000427574746F6E20507265737365640A004E
:102610002DE9F04116460F4680460025FEF792FA56
:10262000002408E0002318F8042039191846FEF7A2
:102630004BFA0546641CB442F4D3FEF73BFA284635
:10264000BDE8F081F8B5044600208DF80000184878
:10265000A679D4F802500178491C0844091F50F8A3
:10266000042C134800F092F810B100F081F8F8BD86
:102670002078012100F06CF80E4F0122202138460D
:10268000FEF74DFB32462946E01DFFF7C1FF8DF8EE
:102690000000002220213846FEF741FB04484FF09D
:1026A000FF33012269464038FEF74CFFF8BD0000B9
:1026B00060000020000002400FB400B595B017AADA
:1026C00068461699FFF7F6F96846FDF7DAFD82B21B
:1026D0004FF0FF3369460348FEF734FF15B05DF84D
:1026E00014FB000020000020184C4FF0FF35C821DB
:1026F0001648FDF7BBFD15492B460122A1F140000C
:10270000FEF7C4FE114822782B46611C4038FEF7C4
:10271000BDFE60780A380528E9D2DFE800F003073B
:102720000B0F13000948FFF7F5FEE0E70748FFF736
:10273000CFFEDCE70548FFF7A3FED8E70348FFF725
:102740006BFED4E70148FFF77DFFD0E76000002073
:1027500008B5A5208DF800008DF801104FF0FF336B
:10276000022269460148FEF7EDFE08BD2000002068
:1027700008B57F208DF800004FF0FF330122694635
:102780000148FEF7DFFE08BD20000020F8B507462F
:10279000FF2016460D46002407E0385D0090012218
:1027A00069460948FEF7FAF8641CAC42F5D30649BD
:1027B00009688A6842F001028A60B04201D10020B3
:1027C000F8BD0120F8BD0000080000200000000056
:1027D00000000000010203040607080900000000D1
:1027E000010203040428000800000020200000006B
:1027F000D81A00082428000820000020280500001E
:10280000E81A00080A0B0C0D0E0000000000000082
:1028100000000000010000001000000000000000A7
:042820000024F4009C
:04000005080001C529
:00000001FF
